:1000000019C033C032C031C030C02FC02EC02DC087
:100010002CC02BC02AC029C028C027C027C025C09B
:1000200024C023C022C021C020C01FC01EC01DC0CC
:100030001CC01BC011241FBECFEFCDBFDFE3DEBF4E
:100040001FE3A0E8BFE3EEE0F3E002C005900D92ED
:10005000A238B107D9F72FE3A2E8BFE301C01D9290
:10006000A438B207E1F75BD08FC0CACF1F920F92BE
:100070000FB60F9211242F938F939F93EF93FF93BB
:100080008091813F8093AA0A81958093AE0A81E096
:100090008093840A80938D0A8091823F9091833F60
:1000A0000196823821E0920780F58093823F9093F9
:1000B000833F139917C08091823F9091833F209195
:1000C000803F21502093803F21110CC0019682383F
:1000D00021E09207F8F48093823F9093833F85E07C
:1000E0008093803FE091823FF091833FE457FE4749
:1000F00080818093813FFF91EF919F918F912F910C
:100100000F900FBE0F901F9018951092823F109283
:10011000833FCFCF1092823F1092833FE0CF98ED84
:1001200080E094BF80936100069A079A809113043F
:1001300088608093130482E08093810A23E030E09A
:100140002093A80A3093A90A40E850E04093AA0AF5
:100150005093AB0A2093AC0A3093AD0A2FE730E0FE
:100160002093AE0A3093AF0A94BF80E38093920A43
:1001700081E080938C0A80918E0A80FFFCCF89E019
:0C0180008093800A7894FFCFF894FFCFA2
:10018C0080828486888A8C8E90929496989A9C9E73
:10019C00A0A2A4A6A8AAACAEB0B2B4B6B8B9BBBD66
:1001AC00BFC1C3C4C6C8C9CBCDCED0D2D3D5D6D887
:1001BC00D9DBDCDEDFE0E2E3E4E6E7E8E9EAEBEDFD
:1001CC00EEEFF0F1F2F2F3F4F5F6F7F7F8F9F9FADD
:1001DC00FAFBFBFCFCFDFDFDFEFEFEFEFFFFFFFF40
:1001EC00FFFFFFFFFFFFFEFEFEFEFDFDFDFCFCFB27
:1001FC00FBFAFAF9F9F8F7F7F6F5F4F3F2F2F1F095
:10020C00EFEEEDEBEAE9E8E7E6E4E3E2E0DFDEDC83
:10021C00DBD9D8D6D5D3D2D0CECDCBC9C8C6C4C3E2
:10022C00C1BFBDBBB9B8B6B4B2B0AEACAAA8A6A497
:10023C00A2A09E9C9A98969492908E8C8A88868482
:10024C0082807D7B79777573716F6D6B6967656380
:10025C00615F5D5B59575553514F4D4B4947464470
:10026C0042403E3C3B3937363432312F2D2C2A2933
:10027C002726242321201F1D1C1B191817161514A3
:10028C001211100F0E0D0D0C0B0A090808070606AB
:10029C000505040403030202020101010100000030
:1002AC000000000000000001010101020202030332
:1002BC00040405050606070808090A0B0C0D0D0EAB
:1002CC000F1011121415161718191B1C1D1F2021A5
:1002DC0023242627292A2C2D2F3132343637393B2B
:1002EC003C3E4042444647494B4D4F51535557595C
:1002FC005B5D5F61636567696B6D6F717375777952
:02030C007B7DF7
:02030E00058068
:00000001FF
